:020000040800F2
:1000000098BD00204501000895320008A12800088D
:100010001D320008990C0008ED6000080000000087
:10002000000000000000000000000000A14A0008DD
:10003000311D000800000000E1340008295A0008C2
:100040005F0100085F0100085F0100085F01000810
:100050005F0100085F0100085F010008D51F00086C
:100060005F0100085F0100085F0100085F010008F0
:100070005F0100085F0100085F0100085F010008E0
:100080005F0100085F0100085F0100084D5D000886
:10009000A55D00085F0100085F010008112000084D
:1000A0005F0100085F0100085F0100085F010008B0
:1000B0005F0100085F0100085F0100085F010008A0
:1000C0005F0100085F0100085F0100085F01000890
:1000D0005F010008555B00085D5B00085F010008D8
:1000E0009D1F00085F0100085F0100085F01000814
:1000F0005F0100085F0100085F0100085F01000860
:100100005F0100085F0100085F0100085F0100084F
:100110005F0100085F0100085F0100085F0100083F
:100120005F0100085F0100085F0100085F0100082F
:10013000DFF80CD000F028FA00480047199A0008B0
:1001400098BD00200648804706480047FEE7FEE7C6
:10015000FEE7FEE7FEE7FEE7FEE7FEE7FEE7FEE777
:10016000A55A00083101000840EA01039B0703D0AB
:1001700009E008C9121F08C0042AFAD203E011F8E6
:10018000013B00F8013B521EF9D27047D2B201E0A8
:1001900000F8012B491EFBD270470022F6E710B58C
:1001A00013460A4604461946FFF7F0FF204610BDE5
:1001B00030B505462A460B4612F8010B13F8014BE1
:1001C00008B1A042F8D01CB1002802D06D1CF1E7A4
:1001D000284630BD10B5002200E0521C835C8C5CC8
:1001E000A34201D1002BF8D1D8B2E1B2401A10BD20
:1001F00030B504460020034600E05B1C934203D266
:10020000E05CCD5C401BF8D030BD034611F8012BFB
:1002100000F8012B002AF9D11846704730B5054681
:100220000020034600E05B1C934205D2EC5CC85CF6
:10023000201A01D1002CF6D130BD00000FB400B55A
:100240008DB010A909900B9000914FF0FF300A90EB
:1002500000200C9005480690054807906A4609A8BA
:100260000F9900F063F90DB05DF814FB4905000823
:10027000670500082DE9FF5F1D464FF0FF3BD5E9FC
:10028000014691465F464FF00008A9697F1C01981E
:100290008847296A824688470028F6D1BAF1FF3F8D
:1002A0000CD024F4C064002E19DD600614D5BAF118
:1002B0002B0F09D0BAF12D0F0ED103E0584604B030
:1002C000BDE8F09F44F48064A9697F1C01988847C9
:1002D000761E8246002E02DDBAF1300F03D0B9F14E
:1002E000000F26D032E0A969761E44F400747F1C0A
:1002F000019888478246002E05DDBAF1780F06D0B6
:10030000BAF1580F03D0B9F1000F10D01EE0B9F1C7
:10031000000F02D0B9F1100F18D1A969761E24F48C
:1003200000747F1C019888478246102002E0082054
:1003300000E00A20814609E008FB0908A969761E49
:1003400044F400747F1C019888478246002E05DD26
:100350004946504600F0D5F80028EDDAE9690198E1
:100360008847A00502D46FF00100A8E7E00725D177
:10037000600613D5600502D5C8F1000000E04046D4
:1003800029680A1D2A600968220501D5087015E050
:10039000220701D5088011E008600FE02868011DE0
:1003A00029600068210502D580F8008006E0210759
:1003B00002D5A0F8008001E0C0F8008038467EE752
:1003C0002DE9FF5FD2E901A74FF000089169994636
:1003D0001446DDF838B0464601988847054659EA84
:1003E0000B0005D009E0A169761C019888470546F5
:1003F000216A284688470028F5D1681C03D05FEAA7
:10040000CA7005D015E04FF0FF3004B0BDE8F09F92
:100410002068011D2160D0F800800AE05FEACA7000
:1004200001D108F8015BA169761C7F1E01988847FD
:100430000546002F1ADD681C18D0B9F1000F0DD049
:10044000E81705EBD060421120F01F0059F8221088
:100450002A1A012090400142E0D107E0BBF1000FD1
:10046000DCD1216A284688470028D7D0E169019865
:100470008847BBF1000F07D1002E05DD5FEACA7087
:1004800002D1002188F80010A068B84203DDBBF15A
:10049000000F03D017B16FF00100B6E73046B4E7A4
:1004A0002DE9F05F0546002092469B4688460646A9
:1004B000814640241BE0284641464746224600F03C
:1004C00084F853465A46C01A914110D31146184633
:1004D000224600F06BF82D1A67EB01084F462246C2
:1004E0000120002100F062F817EB00094E41201EA8
:1004F000A4F10104DFDC484631462A464346BDE804
:10050000F09F3A2800D2303820F02002412A01D34F
:10051000A2F13700884201D34FF0FF30704700004E
:10052000026811441378016018467047D16004498D
:1005300051610449116200211161114600F05AB85D
:1005400021050008EB050008426842B1016811F876
:10055000013B23B1521EC0E9001218467047012129
:10056000C160881E704742685AB1C368016843B9C8
:1005700083688B4205D0491E521CC0E9001200203E
:1005800070474FF0FF307047064C074D06E0E068BB
:1005900040F0010394E8070098471034AC42F6D3CA
:1005A000FFF7CAFDC8B50008E8B50008202A04DB3B
:1005B000203A00FA02F1002070479140C2F1200376
:1005C00020FA03F3194390407047202A04DB203AB5
:1005D00021FA02F00021704721FA02F3D040C2F163
:1005E00020029140084319467047C0B24FF4F051C1
:1005F00000F096B92DE9F34F8BB04FF0000801F1F0
:100600000C000C464FF0010B46460DF1080A019014
:100610006269012101989047051E2DD0252D2CD00F
:10062000216A8847C0B16269012101989047216A17
:1006300088470028F7D1411E62690198904700E081
:10064000761CA1690B988847216A88470028F7D152
:10065000E1690B988847DBE7A1690B988847074653
:10066000A84201D1761CD3E7E1690B9888477F1C2B
:1006700002D1B8F1000F6FD046E1002762693D4614
:100680003946019890472A2804D1626901210198CE
:1006900090470125DFF88492626901210198904713
:1006A000A0F130010A290AD24F45E5DC07EB8701AA
:1006B00000EB4107303FDFD445F01005ECE7E906D9
:1006C00001D46FF000476C280AD04C2814D0682859
:1006D00015D06A280DD074281CD07A281AD01DE0B5
:1006E00062690121019890476C2802D045F0040509
:1006F00014E045F002050DE045F020050AE06269CE
:10070000012101989047682802D045F0080505E0CE
:1007100045F400656269012101989047C4E90157D9
:1007200065283DD019DC58287AD00CDC452837D014
:1007300004DC252826D0412831D131E046282FD0AD
:1007400047282CD12CE05B2877D0612828D063285B
:100750007CD0642823D15AE0D0E06F2848D008DC50
:1007600066281DD067281BD0692821D06E2816D195
:1007700027E0702845D0732868D0752847D078289E
:100780000DD14DE0A1690B988847054625283FF417
:1007900069AFE1690B9888476D1C3FF46AAFB3E01D
:1007A00023466A466FF001000B99AFF300809EE08C
:1007B00045F040006060A80723464FF0000236D4A1
:1007C0003EE0E8077FF447AF2068011D2160006824
:1007D000290501D506701BE7290701D5068017E713
:1007E000A90703D5F117C0E9006111E706600FE71B
:1007F00045F040006060A80723464FF0080216D479
:100800001EE040F60E0125EA0100606016E045F0AA
:1008100040006060A80723464FF00A0207D40FE0AB
:1008200045F040006060A80708D5234610226FF00D
:1008300001000B99AFF3008059E007E02346102236
:100840006FF001000B99FFF715FD50E04FF0000924
:100850004F464B46632802D05B2806D040E0E806AE
:1008600001D40120A06001273AE0626901210198CA
:1008700090475E2805D14FF0010962694946019809
:100880009047216939B900210A46534643F821208F
:10089000491C0829FADBB0B3216969B9C11700EB1B
:1008A000D16253110AEB830122F01F02821A012048
:1008B0000B68904003430B606269012101989047E7
:1008C0005D28E8D1B9F1000F09D00020514651F858
:1008D0002020D24341F82020401C0828F7DB02AB3F
:1008E000224600976FF001000B99FFF769FD002881
:1008F0000CDA401C08D1BBF1000F05D04FF0FF30DF
:100900000DB0BDE8F08FFFE74046F9E7E90701D1F8
:1009100008F1010806444FF0000B79E6CCCCCC0C72
:100920007F2801D9002208E0064A02EB5002C007E6
:10093000127800D1120902F00F0201209040084005
:1009400070470000F9B2000870B58C1810F8015B10
:1009500015F0070301D110F8013B2A1106D110F858
:10096000012B03E010F8016B01F8016B5B1EF9D15C
:100970002B0705D40023521E0DD401F8013BFAE7E2
:1009800010F8013BCB1A921C03E013F8015B01F84D
:10099000015B521EF9D5A142D8D3002070BD21B110
:1009A000826842F00102826003E0826822F0010264
:1009B0008260704700B585B00121480203F0BAF8A3
:1009C0000020009001208DF804008DF805004FF400
:1009D000602002900020039001208DF810006946ED
:1009E000144800F05BF8052301220921114800F0AA
:1009F00083F801210F4800F01FF801210D48FFF78F
:100A0000CEFF0C4800F0D4F800BF0A4800F03CF8D4
:100A10000028FAD1074800F0DBF800BF054800F0D5
:100A200029F80028FAD10121024800F0C6F805B0E3
:100A300000BD00000024014021B1826842F48072B0
:100A4000826003E0826822F4807282607047000056
:100A500008B50121082003F06DF80220ADF8000070
:100A600000208DF803006946014801F0D1FB08BD64
:100A7000000C0140014600208A6802F004020AB11D
:100A8000012000E000207047014600208A6802F043
:100A900008020AB1012000E00020704730B502468C
:100AA0000020002350680F4C20400D790C6844EA68
:100AB00005242043506090680B4C2040D1E902543B
:100AC0002C434D7944EA450420439060D06A20F4D9
:100AD00070000C7C641EE4B2234340EA0350D062F1
:100AE00030BD0000FFFEF0FFFDF7F1FF10B5FFF78E
:100AF000AFFFFFF75FFF10BDF0B504460D460020C5
:100B00000021092D11DDE068A5F10A0606EB460774
:100B1000072606FA07F18843A5F10A0606EB460602
:100B200003FA06F10843E0600CE0206905EB450795
:100B3000072606FA07F1884305EB450603FA06F196
:100B400008432061072A0FDA606B561E06EB860702
:100B50001F2606FA07F18843561E06EB860605FA9D
:100B600006F10843606322E00D2A0FDA206BD61FDE
:100B700006EB86071F2606FA07F18843D61F06EB09
:100B8000860605FA06F10843206310E0E06AA2F148
:100B90000D0606EB86071F2606FA07F18843A2F129
:100BA0000D0606EB860605FA06F10843E062F0BD85
:100BB000816841F008018160704721B1826842F488
:100BC000A002826003E0826822F4A0028260704783
:100BD000816841F00401816070470000F8B5074664
:100BE0000C4615466B462A462146024808F0F2F8A4
:100BF0000646F8BD7013002010B50A4890F87E0034
:100C000078B10848173003F083FC0120054948708B
:100C1000002081F87E0008468268416802A005F045
:100C200083FF10BD3085002073796E635F77697430
:100C3000685F6770732C205365636F6E6473203D2B
:100C40002025642C206770735F7365636F6E647317
:100C5000203D2025640A000010B5044624B1012C73
:100C600007D0022C15D10AE01021012004F040FA2F
:100C700010E04FF48051022004F0E2F90AE0102164
:100C8000012004F035FA4FF48051022004F0D8F925
:100C900000E000BF00BF10BD00BFFEE70146CAB2C2
:100CA0000B1243EA0220704710B5002404E0A74865
:100CB000005DA7490855641CA64800888442F6D305
:100CC000A3484068A4494860A14880688860A1485A
:100CD00000881F280FD00220FFF7BEFF00209C498C
:100CE0000860487B1A22052104F0C6FA0021012081
:100CF00004F0A4FA10BD9648C07B282803D094487D
:100D0000C07B2A2816D19248407C01069048807CFE
:100D100041EA00418E48C07C41EA00208C49097DAF
:100D200008438E4908608A48C17D807D41EA0020E1
:100D30008B490860864800688A4988426FD1844898
:100D4000407B89490968884207D88148807B01280F
:100D500003DB7F48807B10280DDD0220FFF77CFF3E
:100D60007B49487B2422052104F086FA00210120DA
:100D700004F064FAE8E07648C07B25285FD01BDCED
:100D800015286FD00EDC08286DD006DC00285BD05B
:100D9000032830D0042867D176E00A2873D01228BF
:100DA000F9D12DE01A380A285ED2DFE800F0392E9A
:100DB000B17D33B1B1B1B1438A286FD00EDC552873
:100DC00067D006DC282844D02A284ED02F28E2D12C
:100DD00054E05A2829D08828DDD176E0A8286DD0A3
:100DE00004DC8F286FD09E28D5D173E0AA287BD051
:100DF000AF28D0D182E05649487B03F011FD95E041
:100E00005349487B03F0F8FB90E05149487B03F0DD
:100E10001BFD8BE04E49487B03F016FD86E086E023
:100E20004B49487B03F032FC80E04949487B03F0A2
:100E300023FC7BE04649487B03F0B4FC76E0444960
:100E4000487B03F069FC71E04149487B03F004FDF5
:100E50006CE03F49487B42490A684049096803F011
:100E60001FFC63E01BE024E052E03949487B3C4929
:100E70000A683A49096803F02BFD57E03449487B7A
:100E800003F006FD52E02AE03149487B03F096FB6F
:100E90004CE02F49487B03F0CDFB47E029E02C498B
:100EA000487B03F0C7FB41E02949487B03F0C2FBC4
:100EB0003CE02749487B03F0BDFB37E02449487BF1
:100EC00003F0B8FB32E01EE00EE02149487B03F05E
:100ED000B1FB2BE01E49487B03F0ACFB26E01C492C
:100EE000487B03F0A7FB21E01949487B03F0A2FBF4
:100EF0001CE01749487B03F09DFB17E01449487B31
:100F000003F098FB12E01249487B03F093FB0DE0DD
:100F10000220FFF7A1FE0E49487B2022052104F0A4
:100F2000ABF90021012004F089F900BF0CE0022098
:100F3000FFF792FE0649487B2022052104F09CF928
:100F40000021012004F07AF900BFD3E6A484002038
:100F5000E484002082010020048500208401002018
:100F60008801002055534243FC00002010B50024A6
:100F700049E047F6FF70294908602948008800F0D9
:100F80000F002849087008460078274901EB8000C7
:100F9000D0F8000C84B204F40040C8B121480078B5
:100FA00001EB8000D0F8000CC0F30E0048F68F7102
:100FB00008401C4909781C4A02EB8101C1F8000C69
:100FC00018490978491E194A52F8210080471AE049
:100FD00004F08000B8B113480078134901EB800099
:100FE000D0F8000C48F60F7108400E4909780E4AF7
:100FF00002EB8101C1F8000C0A490978491E0C4A2C
:1010000052F8210080470548006880B204490880F2
:1010100000F400400028ACD110BD0000445C00404A
:10102000A80100207C02002000500040C8010020E0
:10103000AC01002008B50020009022E1974800880C
:1010400000F00F00964908700846007800287CD10F
:1010500094480068944908800846008800F03000F1
:10106000924908809048008800F440508E490880DA
:101070008C4909684BF6BF7201EA020080F4005007
:1010800080F0200040F4004141F08001854A116069
:101090008248008800F0100090BB1046006848F6B7
:1010A0000F7108401146086001F00AFD7D4909688A
:1010B0004BF6BF7201EA02007B49098801F48051B6
:1010C00009B180F480507849098801F4005109B1D0
:1010D00080F400507549098801F0100109B180F0D1
:1010E00010007249098801F0200109B180F0200048
:1010F00081B241F4004141F080016A4A116008BDAB
:10110000FFE76848006880B20090BDF8000000F476
:101110000060B0B363480068C0F30E0048F68F71FA
:1011200008406049086004F0ADF85E4909684BF674
:10113000BF7201EA02005C49098801F4805109B1DB
:1011400080F480505849098800E056E001F40051CD
:1011500009B180F400505549098801F0100109B126
:1011600080F010005149098801F0200109B180F098
:10117000200081B241F4004141F08001494A1160F0
:10118000BDE7FFE7BDF8000000F40040002878D07C
:1011900044480068C0F30E0048F68F71084041498A
:1011A000086002F061F93F4909684BF6BF7201EA35
:1011B00002003D49098801F4805109B180F4805052
:1011C0003949098801F4005109B180F400503749C8
:1011D000098801F0100109B180F010003349098835
:1011E00001F0200109B180F0200081B241F40041FA
:1011F00041F080012B4A116081E7294800782C4991
:1012000001EB8000D0F8000C80B20090BDF8000027
:1012100000F40040C0B12248007801EB8000D0F813
:10122000000CC0F30E0048F68F7108401C49097885
:101230001F4A02EB8101C1F8000C19490978491EC7
:101240001C4A52F821008047BDF8000000F08000E1
:10125000B8B113480078164901EB8000D0F8000CB3
:1012600048F60F7108400E490978114A02EB8101D6
:10127000C1F8000C0A490978491E0F4A52F82100AA
:10128000804708484430006880B20449088000F470
:10129000004000287FF4D2AE00BF30E7A801002054
:1012A0007C020020005C004090020020920200209E
:1012B00000500040C8010020AC01002010B5494892
:1012C000407838B30020474948704748006803F029
:1012D00012F94548006880784FF4616148434249FB
:1012E00009684978C1EB011100EB81003E490968AA
:1012F000097808443B49486006F034F904463B4805
:10130000007CA04205D03948047401203749487454
:10131000887300BF3648407858B10120334948737C
:101320000846807BA8B100208873887B09F04CFEBA
:101330000FE02E48407B60B100202C4948730846DE
:10134000407E30B10846807F18B10021294806F060
:10135000B7FD2648407B78B12448807B00283FD0E9
:10136000002022498873887B09F02EFE4FF400612B
:10137000214801F021F833E02048007868B10020CE
:101380001E49087019498873887B09F01DFE4FF4C7
:101390000061194801F012F822E01948007802288B
:1013A0000ED11848007801280AD11648007816494D
:1013B0000978884214D013480078134908700FE068
:1013C0000020114908700948807B0849097C88423F
:1013D00006D00648007C05498873887B09F0F4FD37
:1013E00010BD000030850020DC020020100300202A
:1013F000D48500209823002000080140060000202A
:10140000A9020020BA020020C10000200B4A02EB12
:101410008001D1F8001C01F4804171B102EB800120
:10142000D1F8001C48F68F7211404CF28002114333
:10143000024B03EB8002C2F8001C704700500040D2
:101440000B4A02EB8001D1F8001C01F0400171B1A0
:1014500002EB8001D1F8001C48F68F72114048F26F
:10146000C0021143024B03EB8002C2F8001C70471C
:1014700000500040084A02EB8001D1F8001C48F6F9
:101480008F62114048F280021143034B03EB80024C
:10149000C2F8001C704700000050004010B503E087
:1014A0004FF47A7000F046FC02F014FD0128F7D1E9
:1014B00010BD08B54FF4407001F026FF25208DF8CF
:1014C000000003208DF8010001208DF802008DF846
:1014D0000300684601F0E0FE26208DF800000020A1
:1014E0008DF8020001208DF80300684601F0D4FE5B
:1014F00008BD000010B586B02BA30FCB01AC0FC404
:1015000000222DA12D4807F0F1F904462CB12C48FA
:1015100050F824102BA005F007FB2FA006F017FEB3
:1015200004461CB92EA005F0FFFA10E0082C06D1E5
:10153000234850F824102FA005F0F6FA07E02048C1
:1015400050F8241030A005F0EFFA06B010BD0A22C2
:1015500001A9334807F0F8F904462CB1184850F8AF
:10156000241019A005F0E0FA01A92EA005F0DCFA7C
:1015700005AB34222F492A4807F02CFC04462CB135
:101580000F4850F824102CA005F0CEFA2EA005F03C
:10159000CBFA234806F084FC002207A1104607F08E
:1015A000A5F9044600BFD0E72F7379732F436F6E00
:1015B0006669672E696E6900303A000040030020BA
:1015C000180000203F3F3F3F3F3F3F3F3F3F3F3FEF
:1015D00020282573290D0A002F737973000000005D
:1015E000665F6D6B646972202F737973204F6B0D8A
:1015F0000A0000002F737973203F3F3F3F3F3F3F7A
:101600005B2573290D0A0000665F6D6B64697220AB
:101610002F737973203F3F3F20282573290D0A003F
:10162000701300203F3F3FA7D53F3F3F2025730D5C
:101630000A000000FAB100083F3F3FA7D53F3F3FF7
:1016400020282573290D0A003F3F3FA7D53F3F3F84
:101650000D0A0000F0B589B005460E461746002277
:1016600019A11A4807F042F904462CB1184850F85D
:10167000241018A005F058FA1BA102A807F016FACA
:1016800004463CB1124850F8241013A005F04CFA5F
:1016900009B0F0BD0A222946144807F055F904465E
:1016A00001AB3A463146114807F094FB044624B991
:1016B00029460FA005F038FA03E0294610A005F0EE
:1016C00033FA00BFE4E70000303A00004003002096
:1016D000180000203F3F3F3F3F3F3F3F3F3F3F3FDE
:1016E00020282573290D0A00303A2F00701300209E
:1016F0002573203F3F3FA7D53F3F3F3F0D0A0000E6
:101700002573203F3F3FA7D53F3F3F3F3F0D0A0096
:1017100021B1026842F00102026004E002684FF663
:10172000FE731A400260704700B58BB00121084675
:1017300002F0E0F9114800F027F811480090114834
:101740000190002002904FF400600390002004906C
:10175000802005900020069007902020089000022D
:10176000099000200A906946044800F0B7F801216A
:101770000248FFF7CDFF0BB000BD00006C00024037
:1017800004440040B890002001684FF6FE721140FA
:1017900001600021016041608160C1604B49884265
:1017A00008D14A490839496841F00F01474A083AC7
:1017B00051608AE045491431884208D143490839CB
:1017C000496841F0F001414A083A51607DE03F49E3
:1017D0002831884208D13D490839496841F470618F
:1017E0003A4A083A516070E038493C31884208D1A1
:1017F00036490839496841F47041344A083A516021
:1018000063E032495031884208D13049083949688B
:1018100041F470212D4A083A516056E02B49643159
:10182000884208D129490839496841F47001274A9A
:10183000083A516049E025497831884208D1234966
:101840000839496841F07061204A083A51603CE02B
:101850001F49884206D1011F096841F00F01021F8C
:10186000116032E01A491431884208D11849091F21
:10187000096841F0F001164A121F116025E0144971
:101880002831884208D11249091F096841F4706162
:101890000F4A121F116018E00D493C31884208D1EF
:1018A0000B49091F096841F47041094A121F116070
:1018B0000BE007495031884207D10549091F0968E3
:1018C00041F47021024A121F116070470800024063
:1018D000080402400146486880B2704710B50022F3
:1018E000026847F6F0739A430C6A8B6823430C69CD
:1018F00023434C6923438C692343CC6923434C6ABB
:1019000023438C6A23431A430260CB6843600B680D
:1019100083604B68C36010BD416070472DE9F0479C
:101920002848006800F110052E8826480068077ACC
:10193000D6B9042F18D12448007801280FD10021EE
:101940002248006880B2801C214A42F810103020E2
:101950002049088000BF00201B49087003E00727CA
:1019600010201C49088027E0AC88A64201D804203A
:1019700000E002200746B44200D93446A0B2A9686C
:1019800088478046002000F03DFD8146A2B24946CE
:10199000404604F0ADFBA1B2002003F09BFB288879
:1019A000001B28806888204468803020094908800E
:1019B00000020949088000BF024909680F72BDE8AA
:1019C000F08700008002002096020020505C00405A
:1019D0000060004092020020900200202DE9F041BA
:1019E0002848006800F110042688A068C0B1BEB184
:1019F000A588B54200D93546A8B2A16888470746F0
:101A00002088401B2080608828446080002000F0EF
:101A1000D7FC8046AAB24146384601F04DFD00BFD2
:101A2000208850B14FF440501749088000210846E3
:101A300003F050FB3020154908802088A188884297
:101A400004DB03200F490968087218E02088002889
:101A500004DD05200B490968087210E0208870B980
:101A6000062008490968087200210948006880B208
:101A7000801C084A42F81010302004490880BDE854
:101A8000F0810000800200209002002092020020DD
:101A9000505C0040006000402DE9F84F9B48006812
:101AA00045780027BA46062D1BD198480068007873
:101AB00000F07F00002813D1944909688878012834
:101AC00003D193490968CF690AE0022803D19049FC
:101AD00009680F6A04E0032802D18D4909684F6A3A
:101AE00094E0002D64D189480068408800285FD1C7
:101AF00086480068C08802285AD184480068007966
:101B0000002855D181480068007800F07F0028B98E
:101B10007E480068808808B97E4F77E07B4800687F
:101B2000007800F07F00012810D1784909684879D1
:101B3000774909688A6900219047002866D173486F
:101B40000068807A002861D0724F5FE06F480068BB
:101B5000007800F07F00022858D16C480068407976
:101B600000F00F0669480068407900F07009674886
:101B70000068407900F0800038B1674901EB8600C9
:101B8000D0F8000C00F0300806E0634901EB860055
:101B9000D0F8000C00F4405860480078B04235D9C5
:101BA000B9F1000F32D1B8F1000F2FD0594F2DE00D
:101BB000082D07D155480068007800F07F0028BB49
:101BC000574F23E00A2D21D150480068007800F0DB
:101BD0007F0001281AD14D480068807AB0B14B4887
:101BE0000068408890B949480068007970B9474852
:101BF0000068C088012809D14449096848794449E6
:101C000009688A690021904700B9464F57B13F489B
:101C10000068A0F812A03D48006887610020B8471E
:101C200000240FE0394A12685078394A1268116965
:101C300088470446032C05D10920344909680872F5
:101C4000BDE8F88F31480068008A4FF6FF7188427E
:101C500004D109202D4909680872F1E7022C03D04C
:101C60002A480068008A20B90820284909680872B3
:101C7000E6E726480068007800F08000E0B32348DB
:101C80000068C088009021480068008A0099884256
:101C900004D91E4900980968088223E01B4800689F
:101CA000008A1A490968C98888421BDA17480068FF
:101CB000008A1749096891F82C10884203DA00203D
:101CC000194908700EE011480068008A1049096837
:101CD00091F82C1090FBF1F201FB120010B90120D9
:101CE000114908700A48006890F82C1007480068ED
:101CF0008182FFF713FE07E0FFE70320034909682D
:101D0000087200030949088000BF99E7800200209B
:101D1000840200207D57000800500040E4010020AC
:101D20000157000851570008960200209002002039
:101D30007047000001B504490098086000BF0248E0
:101D400000680028FBD108BDD800002038B5054642
:101D50002F480078401CC0B28DF800002C48407815
:101D6000401CC0B28DF8010029488078401CC0B2E8
:101D70008DF802002648C078401CC0B28DF80300E0
:101D80006A460C21284604F087FE012200212846DD
:101D900004F04AFE01221146284604F045FE0520C3
:101DA000FFF7C8FF0321284602F042FA132806D0A5
:101DB00010220121284604F037FE002038BD0422FD
:101DC0000121284604F030FE00BF002402212846ED
:101DD00002F02EFA044624B122460221284604F0DD
:101DE00023FE0520FFF7A6FF04F00800082801D114
:101DF0000020E3E70621284602F01AFAFF2806D061
:101E000010220121284604F00FFE0120D6E7DCE76E
:101E1000D4A8002010B511A004F086FE1DA004F087
:101E200083FE26A004F080FE28A004F07DFE2FA0F3
:101E300004F07AFE33A004F077FE3AA004F074FEBA
:101E40003FA004F071FE42A004F06EFE45A004F035
:101E50006BFE49A004F068FE10BD00000D0A2D2D98
:101E60002D2D2D2D2D2D2D2D2D2D2D2D2D2D2D2DA2
:101E70002D2D2D2D2D2D2D2D2D2D2D2D2D2D2D2D92
:101E80002D2D2D2D2D2D2D2D2D2D2D2D2D2D0D0AC5
:101E9000000000003F3F3F3F3F3F3F3F3F3F3F3F4E
:101EA0003F3F3F3F3F303F3F3F3F53504920466C0D
:101EB0006173683F3F3F3F3F0D0A00003F3F3F3F98
:101EC0003F3F3F3F3F3F3F3F3A0D0A0030202D202C
:101ED0003F3F5350495F466C6173683F3F3F3F3F10
:101EE0003F3F3F3F3F3F3F3F3F0D0A0031202D2006
:101EF0003F3F3F3F3F3F3F3F3F3F3F3F3F3FA7D2F7
:101F00003F0D0A0032202D203F3F3F3F3F3F3F3FE4
:101F10003F3F3F3F61726D666C792E7478740D0A95
:101F20000000000033202D203F3F61726D666C7908
:101F30002E7478743F3F3F3F3F3F3F3F3F0D0A00C5
:101F400034202D203F3F3F3F3F3F0D0A000000005F
:101F500035202D203F3F3F3F3F3F3F3F3F3F0D0A52
:101F60000000000036202D203F3FA7D53F3F3F3FD8
:101F70003F3F3F3F3F0D0A0037202D203F3F3F3F6F
:101F80005741563F3F3F3F0D0A00000010B501F09A
:101F9000A5F810BD10B501F0DBF810BD10B54FF479
:101FA000805000F04FF848B14FF4805000F03EF8F8
:101FB00001200349087003A004F0B6FD10BD000025
:101FC000A3020020524632344C30315F4952510A4C
:101FD0000000000010B5022000F034F870B10220BB
:101FE00000F024F800200649A1F88200A1F8800042
:101FF000012081F87F0003A004F096FD10BD0000D1
:10200000308500205050535F4952510A00000000B3
:1020100010B5202000F016F828B1012002494870C0
:10202000202000F009F810BD30850020014908602B
:102030007047000014040140014908607047000027
:1020400014040140014600200022074B1B6803EAEC
:102050000102054B14331B680B4013B10AB1012078
:1020600000E00020704700000004014000212349E7
:102070008279002A3AD00A46126803689A430B46CE
:102080001A600A1D126803689A430B1D1A600279D0
:1020900011440A6803681A430A60184A0832126831
:1020A00003689A43154B08331A601A1D12680368B7
:1020B0009A43124B0C331A604279102A0ED11A1F20
:1020C000126803681A430D4B08331A601A1D126810
:1020D00003681A43094B0C331A600DE00749427933
:1020E00011440A6803681A430A6005E00279114442
:1020F0000A6803689A430A607047000000040140C0
:1021000010B5044805F0CCFE002203A1104606F0ED
:10211000EDFB10BD70130020303A000010B5002216
:102120001EA11F4806F0E2FB044634B11D4850F8DA
:1021300024101DA004F0F8FC05E01A4850F8241003
:1021400019A004F0F1FC4FF48052002113A006F016
:10215000AFF8044634B1134850F8241013A004F02B
:10216000E3FC05E00F4850F8241010A004F0DCFC5C
:1021700000220AA1104606F0B9FB044634B1094812
:1021800050F824100DA004F0CFFC05E0054850F8ED
:1021900024100AA004F0C8FC10BD0000303A000072
:1021A00040030020180000203F3F3F3F3F3F3F3F9C
:1021B0003F3F3F3F20282573290D0A00A7D83F3F06
:1021C0003F3F3F3F3F3F3F3F20282573290D0A00F7
:1021D00030B500228B071C0F0F2303FA04F20B4BC0
:1021E0008C1053F824309343084C8D1044F825305C
:1021F00023468C1053F824308C07240F00FA04F483
:102200002343024C8D1044F8253030BD08000140B6
:102210002DE9F0410246002500260020002300247D
:10222000002791F803C00CF00F0591F803C00CF0E3
:10223000100CBCF1000F03D091F802C04CEA050568
:1022400091F800C0BCF1000F31D0146800202BE0E1
:102250004FF0010C0CFA00F3B1F800C00CEA0306D1
:102260009E4220D183004FF00F0C0CFA03F7BC43C1
:1022700005FA03FC4CEA040491F803C0BCF1280FF2
:1022800006D14FF0010C0CFA00FCC2F814C00AE0B1
:1022900091F803C0BCF1480F05D14FF0010C0CFAC6
:1022A00000FCC2F810C0401C0828D1D31460B1F85B
:1022B00000C0BCF1FF0F34DD546800202EE000F1B7
:1022C000080C4FF0010808FA0CF3B1F800C00CEA52
:1022D00003069E4221D183004FF00F0C0CFA03F746
:1022E000BC4305FA03FC4CEA040491F803C0BCF1BA
:1022F000280F05D100F1080C08FA0CF8C2F8148078
:1023000091F803C0BCF1480F07D100F1080C4FF061
:10231000010808FA0CF8C2F81080401C0828CED337
:102320005460BDE8F0810000F0B50A4600230024A7
:102330000021002500F00046B6F1004F02D11D4EED
:10234000F16901E01B4E7168C0F3034583B200F4EC
:102350004016B6F5401F08D121F07061154E766821
:1023600026F07066134F7E6012E000F48016B6F51A
:10237000801F06D1032606FA05F4A14341F07061DF
:1023800006E0460D360103FA06F6B14341F07061EE
:1023900022B1460D360103FA06F6314300F000463D
:1023A000B6F1004F02D1034EF16101E0014E7160C0
:1023B000F0BD0000000001404161704701617047BD
:1023C00001460548006880B200EBC100001D034AC9
:1023D00032F8100080B27047505C0040006000404E
:1023E00001460648006880B200EBC100801D044A27
:1023F00032F81000C0F3090070470000505C004044
:102400000060004001460548006880B200EBC10052
:10241000034A32F8100080B270470000505C004060
:1024200000600040014629B90120034A1268108269
:10243000002070470148FCE780020020FC000020DB
:1024400070B50A480468001D0568001D066834441C
:1024500054B108220649204600F00CFC042204492D
:102460001031284600F006FC70BD0000E8F7FF1FA1
:102470008E01002070B540F22441624803F090FBC9
:1024800000284DD05F4803F047FC5F48FFF722FA71
:10249000C0F500605D49088000252FE05C48445D80
:1024A0005C48C08A60B9242C26D15A4880685949B2
:1024B000C98A44545748C08A401C5649C8821BE008
:1024C000544880685349C98A44545248C08A514983
:1024D000C989884204DA4F48C08A401C4D49C882E5
:1024E0000A2C09D14B48806A30B14A4AD08A916A95
:1024F000884700204749C882681C85B24348008845
:102500008542CBDB00214048FFF702F94FF4006120
:102510003D48FFF701FA01213B48FFF7F9F800BFFA
:102520003C49086840F2277103F03AFB60B3394830
:10253000808A70B937490022086840F2277103F099
:1025400059FB34490122086840F2266103F052FB2E
:102550004CE0304A52682F4B5B8AD15C2D4A1068A0
:1025600003F0DFFB2B48408A401C80B22949488297
:102570008989884202DB0020264948822548808AD2
:10258000401E2449888231E02249086840F22661D1
:1025900003F006FB50B31F48808A68B91D4900222A
:1025A000086840F2266103F025FB1A48406AE8B14A
:1025B0001849486A804719E0164A5268154B5B8AE9
:1025C000D15C144A106803F0ACFB1248408A401CEE
:1025D00080B2104948828989884202DB00200D4977
:1025E00048820C48808A401E0A498882094800684F
:1025F000008840F26D11084018B10649086803F0E0
:102600008BFB70BD004400406C000240E0020020E3
:10261000B89000200C88002010B588B0044671499D
:102620008968C81C032270A1FDF7F8FD00283AD183
:102630006C4988686DA1FDF7BBFD40B100206D4974
:1026400081F87C006CA004F06FFA08B010BD6949F5
:102650006831A1F11002931EA1F12200CDE90132EF
:10266000039100905F49383B05AA886869A1FDF78E
:10267000E5FD60491E3170A004F056FA5D495631FF
:1026800070A004F051FA5B49683171A004F04CFA73
:102690005849463171A004F047FA5649583172A0A2
:1026A00004F042FA9CE04F498968C81C032271A1DA
:1026B000FDF7B4FD0028F5D14A4988684BA1FDF724
:1026C00077FD30B100204B4981F87C0081F87D0016
:1026D000BBE748492E3101F1080201F11000CDE9B4
:1026E000012100903F49A2F1180304AA886862A161
:1026F000FDF7A4FD052872D107AA67A13D48303037
:10270000FDF79CFD0798C1B23A48417507AA62A13E
:102710003630FDF793FD0798C1B23648017507AA18
:102720005DA13E30FDF78AFD0798C1B23148C17402
:1027300007AA59A11E30FDF781FD0798C1B22D48A7
:10274000817407AA54A12030FDF778FD0798C1B223
:102750002848417407AA50A12230FDF76FFD254992
:102760000798087401F192021031C81D08F060FA50
:1027700007212048173007F00DFC1E48007C022876
:1027800020DB1C48406802281CD31A4840681949BD
:10279000896888420BD91748406816498968401AE9
:1027A00002280FD90120134981F87E000AE0114860
:1027B000806810494968401A022803D901200D4950
:1027C00081F87E0001200B4981F87C00002081F80F
:1027D0007D003248006880F400403049086000BF46
:1027E00000BF32E70C880020474741002C2C2C2CDE
:1027F0002C00000030850020506C616365207468F7
:10280000652047505320746F206F70656E20617291
:1028100065610A00255B5E2C5D2C255B5E2C5D2CC2
:10282000255B5E2C5D2C255B5E2C5D2C255B5E2C78
:102830005D2C255B5E2C5D0054696D65203A20257A
:10284000730A00006E732020203A2025730A0000CE
:1028500065772020203A2025730A00004C617420FF
:10286000203A2025730A00004C6E6720203A20256C
:10287000730A00005A444100255B5E2C5D2C255BE9
:102880005E2C5D2C255B5E2C5D2C255B5E2C5D2C0F
:10289000255B5E2C5D000000253264000C080140C1
:1028A00000BFFEE721B1028842F48062028004E0AA
:1028B00002884FF6FF331A400280704770B5024617
:1028C0000024002500230020958A138B1B0445EA71
:1028D000030626F07F4404EA01068E4201D101205E
:1028E00000E0002070BD21B1028842F001020280A8
:1028F00004E002884FF6FE731A400280704721B14F
:10290000028842F48072028004E002884FF6FF637E
:102910001A400280704721B1028842F4007202809E
:1029200004E002884FF6FF531A40028070470CB54E
:102930000246002000230193009300920B0F0193A5
:1029400021F07F41019B1BB1009B1433009303E0F6
:10295000090C009B18330093009B1B680B400BB1C4
:10296000012000E000200CBD2DE9F04385B00446B5
:102970000D460026B1460427DFF8CC80A6884FF626
:10298000C0700640684601F0EFF8DDF808802F4877
:10299000B8FBF0F01FFA80F946EA0906A680208805
:1029A0004FF6FE7108402080002629492868884299
:1029B0000CD828684000B8FBF0F087B2042F00DA8A
:1029C00004273E4309F10100208427E0E8884BF604
:1029D000FF71884206D1286800EB4000B8FBF0F098
:1029E00087B209E0286800EBC00101EB0010B8FBDA
:1029F000F0F087B247F48047C7F30B0008B947F0FF
:102A0000010747F4004006434FF4967009FB00F0BD
:102A10004FF47A7190FBF1F0401C2084A68320884B
:102A200040F00100208026884FF6F5300640A88847
:102A30006989084306432680A8892989084320819B
:102A400005B0BDE8F083000000127A0040420F009C
:102A5000A08601000146088AC0B2704712B141F059
:102A6000010102E04FF6FE731940018270470182B6
:102A7000704700004CF6CC400149086070470000E8
:102A80000030004010B500F001F810BD4AF6AA2051
:102A9000014908607047000000300040014948606B
:102AA0007047000000300040014988607047000016
:102AB00000300040014908607047000000300040CD
:102AC00010B518480068047A022C01D0042C05D1F6
:102AD000FEF724FF13480068047A1CE0062C19D185
:102AE00010480068407805280ED10E48006800782C
:102AF00000F07F0040B90B490968C87802F040FA3D
:102B000009490968086A8047084909688868804750
:102B1000082400E00824034909680C7200F01EFE36
:102B200010BD0000800200208C02002084020020E2
:102B300010B500F003F800F04BF810BD00B585B0FB
:102B40000121052000F0F6FF0121880300F0F2FFCB
:102B50004FF40070ADF8100018208DF8130003201A
:102B60008DF8120004A91848FFF752FB4FF480605B
:102B7000ADF8100048208DF8130004A91248FFF7A3
:102B800047FB4FF4E13000900020ADF80400ADF8B1
:102B90000600ADF80800ADF80C000C20ADF80A00F6
:102BA00069460A4803F04CF8012240F225510748D3
:102BB00003F020F80121054802F0DDFF4021034821
:102BC00002F0D0FF05B000BD000801400038014010
:102BD00000B585B00121052000F0ACFF01214804BB
:102BE00000F098FF0420ADF8100018208DF81300B5
:102BF00003208DF8120004A91C48FFF709FB0820E8
:102C0000ADF8100048208DF8130004A91748FFF70D
:102C1000FFFA04A91548FFF7FBFA4FF4165000908D
:102C20000020ADF80400ADF80600ADF80800ADF8DE
:102C30000C000C20ADF80A0069460D4803F000F8BE
:102C4000012240210A4802F0A2FF012240F2244161
:102C5000074802F0CFFF0121054802F08CFF402118
:102C6000034802F07FFF05B000BD000000080140EE
:102C70000044004030B50B46002100BF16E00A2496
:102C8000B4EB107F05D9302404EB107403F8114025
:102C900005E0412404EB10740A3C03F811400001E4
:102CA00000254C00641C1D554C1CE1B29142E6DB32
:102CB00030BD0146CA1701EB92729210A1EB82025D
:102CC00092B9642091FBF0F200FB121050B94FF45E
:102CD000C87091FBF0F200FB121008B90120704798
:102CE0000020FCE70120FAE70020F8E710B54FF4D8
:102CF00000410248FFF762FB10BD000000080140E0
:102D000010B54FF400410248FFF756FB10BD00001C
:102D10000008014001782A4A117041785170817889
:102D20009170C178D17001791171427924494A7149
:102D300082798A71C279CA71017A214A1172427A02
:102D40001F494A72827A8A72C27ACA7202211D4A65
:102D5000117000219174032182F8241082F836103A
:102D600082F8481082F85A1082F86C1082F87E10AF
:102D700041F2883191804A1C1249CA82521C0A854C
:102D80000C210F4A117329220D494A73AB228A7311
:102D90007C22CA7300220A7401224A740021094A63
:102DA000517000220749CA7481F825200021054A84
:102DB0009170002203490A7581F8262070470000AF
:102DC000D4A80020E6A8002010B5044607482168D2
:102DD000C0F892102422211D0548FDF7C5F90421F1
:102DE0000248923007F0D6F810BD00003085002070
:102DF0000034002070B5044600259CB907F09CFB08
:102E0000094988420DD14FF480600849086080006C
:102E10000749086005480068096848430549086093
:102E200000E00125284670BD1840EF00F8000020A2
:102E3000F4000020F00000202DE9F04105460F4687
:102E400016461C4614B90020BDE8F08125B922467B
:102E50003946304607F040FB0020F5E72DE9F04108
:102E600005460F4616461C4614B90120BDE8F08100
:102E700025B922463946304607F042FC0020F5E7E6
:102E800070B50546002414480068007800F07F0003
:102E9000212810D1FE2D0ED10F480068408850B96E
:102EA0000D480068808830B90B480068C088012848
:102EB00001D10A4C01E0022070BD0CB90220FBE7F1
:102EC00005480068846100210348006841820020B1
:102ED000A0470020F0E70000800200202524000821
:102EE00010B504460249204602F020FC10BD000047
:102EF0004402002010B504460249204602F016FCA8
:102F000010BD00003C02002070B505460648006870
:102F1000C478052C01DD002070BD044800EBC4011D
:102F2000284602F003FCF7E7800200204C02002054
:102F30000246002901DD02207047002A01DD02203F
:102F4000FAE70020F8E7000010B5044611480068D1
:102F5000007800F07F0021281AD1FF2C18D10D48ED
:102F600000684088A0B90B480068808880B909488B
:102F70000068C08860B90120FEF762FA0220FEF7FF
:102F800045FA05480549086000200549087010BD4C
:102F90000220FCE78002002055534243E4840020D5
:102FA0008001002010B50020324988723248C07973
:102FB000324909684872002001F0DAFF4FF40071CD
:102FC000002002F0B5F82021002002F091F818212D
:102FD000002001F0FDFF2A4890F82C10002002F09C
:102FE00009F85821002002F065F80020FEF742FAA7
:102FF000002002F045F80021012002F099F8982104
:10300000012002F057F82021012002F071F8002180
:10301000012002F015F80021022002F089F8D821E1
:10302000022001F0D5FF164890F82C10022001F084
:10303000E1FF4FF44051022002F002F8002102208B
:1030400002F056F80E4890F82C10002001F0D2FF44
:10305000002002F015F8002001F092FF012009493C
:10306000086009480949086000200949087002F011
:103070009DFE10BD1485002040B200088002002093
:10308000E80100207402002055534243E4840020EC
:10309000800100207047704710B5FFF7D1F900207C
:1030A00005490968887200F07DFB02F089FE002066
:1030B0000249086010BD0000800200207402002058
:1030C00010B5044800680449884202D00220FDF788
:1030D000C3FD10BDE48400205553424310B5184889
:1030E0000078022810D003281DD0042802D005281B
:1030F00023D100E000BF0020114908704FF4405177
:10310000022001F09DFF19E00E48C07B282808D15D
:103110000C49487B0C490A680C49096801F0C0FA5F
:1031200000BF00BF0AE00121002002F087F84FF441
:103130004051022001F084FF00E000BF00BF10BD3D
:1031400080010020E4840020880100208401002008
:1031500010B51D48C47B1D49022002F043FE1C49E6
:1031600008801C48007810B101281CD102E0FDF74E
:103170009BFD26E02A2C08D11349487B16490A6892
:103180001649096801F0A4FB1BE00120FDF764FD6E
:103190000D49487B2422052102F06EF8002102200F
:1031A00002F04CF80DE00220FDF756FD0649487B81
:1031B0002422052102F060F80021022002F03EF8EE
:1031C00000BF00BF10BD0000E4840020A4840020E4
:1031D000820100208001002088010020840100205D
:1031E00010B508480068807A58B105200649086083
:1031F0000120FEF725F90220FEF708F90020034917
:10320000087010BD800200207402002080010020A0
:1032100004200149086070477402002000BFFEE7E7
:1032200038B507F0A5FEF8B16B4620220F491048CB
:1032300005F073FC04466CB10E490FA003F074FC5A
:103240000B4804F02DFE00200A49487600F0A4F94E
:10325000012038BD009808B90120FAE707F012FEF6
:103260002021024807F075FF0020F2E724740020B7
:1032700098230020100300206661696C6564207447
:103280006F20726561642046696C65203A20257361
:103290000D0A00007047704770B5002100230F220F
:1032A000C47804B3154C246804F4E064C4F5E06405
:1032B000210AC1F10403CA40447804FA03F1847876
:1032C0001440214309010E4C0678A155047804F0FE
:1032D0001F050124AC4005786D11AD0005F1E02516
:1032E000C5F8004109E0047804F01F050124AC4052
:1032F000044D0678761145F8264070BD0CED00E0CF
:1033000000E400E080E100E002490143024A11606C
:10331000704700000000FA050CED00E010B504460F
:10332000201202F0FFF8E0B202F0FCF810BD00003D
:1033300070B502264748006844784648006800781F
:1033400000F07F00002844D1092C03D102F096FA46
:1033500006465FE0052C14D13E480068C0787F28FF
:103360000BDC3C480068807838B93A4800688088AF
:1033700018B938480068807A08B1082565E0002649
:1033800048E0032C0ED133480068C078012807D1EB
:1033900030480068808818B902F094FA064639E08F
:1033A000022637E0012C35D12A480068C078012870
:1033B0000DD128480068808848B926480068407ABE
:1033C00000F0200018B102F0E5F8064622E00226DF
:1033D00020E020480068007800F07F00012805D137
:1033E0000B2C17D102F0EAFA064613E019480068E0
:1033F000007800F07F0002280BD1012C03D102F0ED
:10340000C9F8064606E0032C04D102F06FFA06461E
:1034100000E002264EB1E0B20F4A126851698847B7
:103420000646032E01D109250FE00EB108250CE058
:10343000062500210948006880B2801C084A42F82D
:10344000101030200749088000BF024909680D723A
:1034500070BD00008002002084020020505C00400B
:10346000006000409202002010B511480068047A04
:10347000022C01D0042C01D1082412E0032C01D02D
:10348000052C05D1FEF7AAFA09480068047A08E07D
:10349000072C05D107490968C8688047082400E05F
:1034A0000824034909680C7200F058F910BD0000A7
:1034B0008002002084020020F0B5561C7510074ED3
:1034C00006EB41042B4605E034F8047B20F8017B31
:1034D000401C5B1E002BF7D1F0BD000000600040D7
:1034E0007047000070B505461948006880F4004038
:1034F0001749086007F07AFD002216A1164805F06A
:10350000F5F904462CB1154850F8241014A003F026
:103510000BFB01222946174805F016FA044624B190
:10352000294615A003F000FB03E0294616A003F08E
:10353000FBFA00BFFFF774FE0028FBD00D4804F033
:10354000AFFC0348006880F400400149086070BD8A
:103550000C080140303A0000400300201800002011
:103560003F3F3F3F3F3F3F3F3F3F5B2573290D0AB2
:1035700000000000982300203F3F25733F3F3F3F5E
:103580003F3F0D0A000000003F3F3F3F3F3F3F3AB3
:1035900025730D0A0000000010B51348006880F480
:1035A00000401149086007F021FD00220FA11048DA
:1035B00005F09CF904462CB10E4850F824100EA0DA
:1035C00003F0B2FA01221149114805F0BDF9044691
:1035D00024B10E490FA003F0A7FA10BD01200B493A
:1035E000487600BFF9E700000C080140303A0000BF
:1035F00040030020180000203F3F3F3F3F3F3F3F38
:103600003F3F5B2573290D0A0000000010030020D6
:10361000982300203F3F25733F3F3F3F3F3F0D0A28
:103620000000000010B54548407E00282BD04348DC
:10363000807F0028FAD0FFF7F3FD002860D03F48D4
:10364000C07E00284CD03D4890F82D0001283DD187
:1036500000203A4981F82D0039480078012818D116
:10366000084690F8290001280ED181F828000D2184
:103670003248FCF792FD314991F8280006F04AF9EA
:1036800001202E49887657E001202C4981F8280036
:1036900052E02B480078022810D10320274981F8F6
:1036A00028000D212548FCF778FD244991F82800D1
:1036B00006F030F90120214988763DE02048007865
:1036C000002839D101201D49087735E000211D4827
:1036D00004F0F6FB002019498877012008622BE0EE
:1036E000184804F0DDFB0020144948768877012053
:1036F00008621548006880F40040134908601BE028
:1037000001200E4988770846007FA8B1002008777D
:10371000C87688770B4804F0C3FB00200749487639
:103720000948006880F40040074908600120034907
:10373000086206A003F0F8F910BD00001003002095
:10374000A9020020982300200C08014053746F70D8
:1037500020506C61793A2573210D0A0010B50D488F
:1037600090F82C10002001F045FC0B480068007A0E
:10377000082805D14002094908801020084908801E
:1037800005480068007A092801D1012010BD0020F9
:10379000FCE70000E80100208002002090020020E9
:1037A0009202002010B5012002F0C0FA01240B485B
:1037B000046000200A49088008460088074908601C
:1037C0000020091D08604FF4E050054908800846B4
:1037D000008802490860002010BD0000405C0040E5
:1037E0008A0200202DE9F0410446B949204600F044
:1037F00099FC8046002C7DD1B548007A55287AD1B5
:10380000B348407ABB28FAD1B1480078B149097869
:10381000884230D1AE484078AE49497888422AD1B2
:10382000AB488078AB498978884224D1A848007891
:1038300004EBC401A84A02EB41010873A448417893
:1038400004EBC40002EB40004173A148817804EB13
:10385000C40002EB400081739D48C17804EBC400B2
:1038600002EB4000C17341F66C6004EBC40102EB53
:10387000410108821DE0FF2004EBC401964A02EBDF
:1038800041010873FF2104EBC40002EB40004173C7
:1038900004EBC40002EB4000817304EBC40002EBB4
:1038A0004000C17341F66C6004EBC40102EB4101BE
:1038B0000882552089490870CC20487085480078D6
:1038C000887084484078C870824880780871814840
:1038D000C07848717F48007988717E484079C87106
:1038E0007C48807908727B48C07948727948007AB0
:1038F000887201E057E022E07648407AC872754845
:10390000807A08737348C07A487301F10E0005F09D
:10391000CDFE002071498874022508E06F48807C44
:103920006E49495D08446D498874681C85B2122D42
:10393000F4DB13226949204602F0C6FFC5E0644863
:10394000007A5528FAD16248407ADD28F6D100275E
:103950000A2505E05E48405D3844C7B2681C85B260
:10396000162DF7DB5A48807DB842E7D10C220021A2
:1039700057480A3002F088FEFDF790FD5520574960
:103980000870EE20487041F66C6004EBC401524AA6
:1039900002EB4101088202225049204602F094FFC6
:1039A00002F08AFD91E0012CC8D14D48006880F4F6
:1039B00000404B49086008F0FF01454800F078FCE2
:1039C0000646012E0FD14F20444908704B20487005
:1039D0000222204602F078FF4148006880F400404F
:1039E0003F49086071E0022E25D132203B49087022
:1039F000602048700D213948801CFCF7CEFB042064
:103A00003649C87301200874002048740120887466
:103A10000020C87408754875AA208875CC20C87520
:103A20001822204602F050FF2D48006880F4004024
:103A30002B49086049E0032E47D1322027490870FE
:103A4000602048700D212548801CFCF7A6FB032050
:103A50002249C8730120087400204874012088742A
:103A60000020C8742F200875002048751D48006884
:103A700000F041FD19481C490A68C0F816208A88E0
:103A800042838979017701461848D0F89200C1F83D
:103A90001D002422164911482130FCF765FBAA209D
:103AA0000E4981F84100CC2081F842004322204693
:103AB00002F00AFF0A48006880F4004008490860E4
:103AC00004210A48923006F065FABDE8F081000052
:103AD00076A90020D4A80020E6A8002076B1002016
:103AE0000C080140DC020020D402002030850020B8
:103AF0000034002029B1064A52690243044B5A613E
:103B000004E0034A52698243014B5A617047000046
:103B10000010024029B1064AD2690243044BDA611F
:103B200004E0034AD2698243014BDA617047000026
:103B30000010024029B1064A92690243044B9A617F
:103B400004E0034A92698243014B9A617047000086
:103B5000001002400348406A40F08070014948620A
:103B6000704700000010024030B500210022002400
:103B700000232D4D6D6805F00C0121B1042905D0FD
:103B8000082923D105E0294D056022E0274D056075
:103B90001FE0254D6D6805F47012234D6D6805F426
:103BA0008034022505EB92421CB9214D5543056036
:103BB0000BE01D4D6D6805F400351DB11C4D5543DE
:103BC000056002E0194D5543056002E0174D0560A0
:103BD00000BF00BF144D6D6805F0F0010909154DD7
:103BE0006B5C0568DD4045600F4D6D6805F4E06174
:103BF000090A104D6B5C4568DD4085600A4D6D68B3
:103C000005F46051C90A0B4D6B5C4568DD40C56029
:103C1000054D6D6805F44041890B074D6B5CC56827
:103C2000B5FBF3F5056130BD0010024000127A00CB
:103C300000093D00DC000020EC00002010B501462A
:103C40000022002300204A11012A02D1094C2368D6
:103C500006E0022A02D1074C236A01E0054C636AA0
:103C600001F01F02012494401C400CB1012000E02F
:103C7000002010BD001002402DE9F04106460F461D
:103C800015461C4600BF4FF400313348FEF74FFE87
:103C90000028F8D101213048FEF704FE01212E480A
:103CA000FEF72DFE00BF2D492B48FEF707FE00282A
:103CB000F9D0002231462848FEF7D0FE00BF28493F
:103CC0002548FEF7FBFD0028F9D039462248FEF7CB
:103CD000CEFE00BF2249891C1F48FEF7EFFD0028D9
:103CE000F8D001211C48FEF70AFE00BF1B491A4804
:103CF000FEF7E4FD0028F9D0012231461648FEF710
:103D0000ADFE00BF1549491C1348FEF7D7FD00283A
:103D1000F8D018E0012C07D100210F48FEF7C2FDB2
:103D200001210D48FEF7F7FD00BF0C493F310A485D
:103D3000FEF7C4FD0028F8D00748FEF78BFE05F813
:103D4000010B601EC4B2002CE4D101210248FEF731
:103D5000A9FD0120BDE8F0810054004001000300EE
:103D6000820007002DE9F04105460F4614461E4625
:103D700001212248FEF7C3FD00BF21491F48FEF77D
:103D80009DFD0028F9D0002229461C48FEF766FE5A
:103D900000BF1C491948FEF791FD0028F9D03946AB
:103DA0001648FEF764FE00BF1649891C1348FEF74B
:103DB00085FD0028F8D00CE021781048FEF757FE6A
:103DC00000BF1049891C0D48FEF778FD0028F8D087
:103DD000641C301EA6F10101CEB2EDD101210748CD
:103DE000FEF799FD00BF0548008800F40070B0F5AB
:103DF000007FF8D00020BDE8F081000000540040B2
:103E0000010003008200070010B500220721DE2018
:103E100000F008F810BD10B510220721DE2000F0D8
:103E200001F810BD70B504460E46154601211D4827
:103E3000FEF765FD00BF1C491A48FEF73FFD00284C
:103E4000F9D0002221461748FEF708FE00BF1749A7
:103E50001448FEF733FD0028F9D031461148FEF72B
:103E600006FE00BF1149891C0E48FEF727FD0028F9
:103E7000F8D029460B48FEF7FAFD00BF0B49891C14
:103E80000848FEF71BFD0028F8D001210548FEF781
:103E900042FD00BF0348008800F40070B0F5007FC9
:103EA000F8D070BD005400400100030082000700FC
:103EB00010B54FF480610648FEF77EFA0F212020EE
:103EC00000F07AFD4FF480610148FEF777FA10BDEB
:103ED000000C014010B500F01DF858B108A002F028
:103EE00023FE0B48FEF716FF09480C30FEF76CFF67
:103EF000012010BDFEF712F9FDF7FCFA0020F8E7EB
:103F00003F3F3F3F3F3F3FA8B03F3F3F0D0A0000CC
:103F10002434002038B5002221A1224804F0E6FC18
:103F200005462DB1204850F8251020A002F0FCFDD8
:103F3000012223A1264804F007FD054655B125A01E
:103F400002F0F2FD002216A1104604F0CFFC054657
:103F5000002038BD6B46342226491D4804F0DDFDA3
:103F600005460098342810D123A002F0DDFD00247E
:103F700005E02048015D28A002F0D6FD641C0098F1
:103F80008442F6D31AA002F0CFFD114803F088FF57
:103F9000002203A1104604F0A9FC05460120D8E741
:103FA000303A000040030020180000203F3F3F3F10
:103FB0003F3F3F3F3F3F5B2573290D0A0000000054
:103FC0002F7379732F436F6E6669672E696E690070
:103FD00070130020446F6E27742046696E6420467B
:103FE000696C65203A20436F6E6669672E696E6959
:103FF0000D0A0000243400200D0A2F7379732F431B
:104000006F6E6669672E696E69203F3F3F3F3F3F95
:104010003F203A200D0A00002530327820000000B1
:1040200070B506460C4615463548007860B93548E7
:104030000068604334490860324800686843334987
:10404000086001202E4908702D480078012844D1CD
:104050002F480068B0B92B48008883B22D4A2A48FF
:1040600001683046FEF7E8FE40222A49812001F02F
:10407000D0FE244800684038254908604020264981
:10408000086011E02348244A1268811840228120E8
:1040900001F0BFFE1E48006840381D4908601E48F8
:1040A000006840301C4908604021012001F012F8EE
:1040B0003021012001F01CF81348006840301249FB
:1040C000086012480068403810490860134880684A
:1040D000403812498860FEF713FE0C48006870B93A
:1040E00000200B4908600C4908600749086003205C
:1040F0000B490870002002490870FEF7F7FD70BDFB
:1041000010010020F40000201401002018010020FC
:1041100000010020A4740020040100200485002078
:10412000800100202DE9F04780460D4626214046BB
:1041300000F09AF8064616B90020BDE8F08740F274
:10414000B450864200DD06462821404600F08CF837
:104150000746B946C7F30A0710202949486138467F
:10416000FFF7DCF8182101EB4811C8B201F0DAF9C9
:10417000B819B0F5006F0BDA002406E0002001F05A
:10418000D1F928706D1C601C84B2B442F6DB24E0C7
:10419000C7F5006087B2002406E0002001F0C2F9F4
:1041A00028706D1C601C84B2BC42F6DB10201449E0
:1041B000086148610020FFF7B1F8182101EB4811B0
:1041C000C8B201F0AFF906E0002001F0ABF92870A9
:1041D0006D1C601C84B2B442F6DB102008490861F3
:1041E00009EB06001FFA80F94A462821404602F0F2
:1041F00037FC40220121404602F016FC30469CE785
:104200000010014070B5044610200849486120465E
:10421000FFF784F8012001F085F9002001F082F910
:104220000546102001490861284670BD0010014074
:1042300070B504460D4610200A4948612846FFF72C
:104240006DF8082101EB4411C9B241F0010001F001
:1042500069F9002001F066F906461020014908615D
:10426000304670BD0010014070B504460E46102067
:104270000E4948613046FFF751F8082101EB44111F
:10428000C9B241F0020001F04DF9002001F04AF9F5
:1042900005464FF6FF7000EA0525002001F042F9BF
:1042A0000543102001490861284670BD00100140F7
:1042B00070B504460D4670480460006800783228E6
:1042C0007ED16D480068407868287AD16A480068D5
:1042D000C07B0228F4D168480068408A012833D1A5
:1042E00065480168891C6548FBF78FFF62480068D4
:1042F000008A6249C88160480068408A08825E4836
:104300000068808A48615C480068018A5CA002F00D
:104310000BFC5F4859498861574909688A8A57499F
:104320008869554909681631FBF71EFF5248006835
:10433000808A524948820120C861564981F82E007E
:1043400000204876086275E04B480068418A4B4877
:10435000008A401C81426DD147480168891C47484A
:10436000FBF738FF002865D143480068408A43497D
:1043700008820846406940490968898A08443F49DB
:10438000486189693D4B5B8AC8183B4909688A8A3C
:10439000394909681631FBF7E7FE3848408A364943
:1043A0000968898A0844354948820846408AB0F538
:1043B000804F18DB0846008A102809DC084601E017
:1043C00057E039E04FF480428169FDF743F905E099
:1043D0002A484FF480428169FCF700FC00202749FD
:1043E0004882FEF74FFB01202449C861294981F822
:1043F0002E002248008A2149C98988421AD11F48C3
:10440000408A70B11D48008A102805DC1B48428A8A
:104410008169FDF71FF904E01848428A8169FCF7B9
:10442000DDFBFDF76DFE0D211448FBF7B6FE1AA06B
:1044300002F07AFB012070BD0F48006840786028C8
:1044400017D10D480068C07B012801D10320F2E795
:1044500009480068C07B02280BD12F22064801685A
:1044600016311148FBF780FE01200A4948770220E7
:10447000E1E70020DFE7000010000020F00200204C
:104480003F3F3F3F3F3F3F20282564290D0A000062
:1044900024340020100300203F3F3F3F3F3F3F3F79
:1044A0003F3F0D0A00000000C033002010B58022FD
:1044B0000C21DE20FFF7B6FC00220D21DE20FFF7E5
:1044C000B1FC00220E21DE20FFF7ACFC00220F2100
:1044D000DE20FFF7A7FC00221021DE20FFF7A2FC60
:1044E00000221121DE20FFF79DFCC0220821DE20E2
:1044F000FFF798FC10BD10B50446072322460021A3
:10450000DE20FFF7B9FBA07800F07F00A07010BD9F
:1045100010B50446A07840F08000A070FFF77BFC47
:10452000072322460021DE20FFF71CFCFFF76CFC6E
:1045300010BD00002DE9F04107460C4616461D4609
:1045400070191B490968884213D92A2C02D102200C
:10455000FCF782FB0020FCF77FFB21220521384677
:1045600000F08AFE0021012000F068FE0020BDE876
:10457000F08110488168104800686843814214D077
:104580002A2C03D10220FCF767FB02E00020FCF795
:1045900063FB0849487B2422052100F06DFE0021C1
:1045A000012000F04BFE0020E1E70120DFE70000E2
:1045B000F8000020E4840020F400002010B5044638
:1045C0002046FEF717FC68B10A49487B3A220221CF
:1045D00000F052FE0121084600F030FE0020FCF7FA
:1045E0003BFB10BD05F0F0FE0121002000F026FE8F
:1045F00000BFF6E7E484002070B506460A48007C58
:1046000000F0010010B1094D052408E0084D0648EE
:10461000C07C242802DC0448C47C00E02424214619
:10462000284601F07BFA70BDE484002024010020BC
:104630002901002010B504460E48806818B90020F2
:10464000FCF70AFB0BE00B48007B00F0800018B180
:104650000020FCF701FB02E00220FCF7FDFA05490F
:10466000487B2022052100F007FE0021012000F0F8
:10467000E5FD10BDE484002010B504460821024881
:1046800001F04CFA10BD00005101002010B50446A5
:104690000421024801F042FA10BD00004D01002043
:1046A00070B506460C4615461948007820BB1949D6
:1046B000487B2B4622462821FFF73CFF00B970BDFE
:1046C0001448007B00F0800040B1022010490870BF
:1046D0002A4621463046FFF7A3FC0CE00220FCF7F7
:1046E000BBFA0C49487B2422052100F0C5FD0121BD
:1046F000084600F0A3FDE2E705480078022804D14F
:104700002A4621463046FFF78BFC00BFD7E7000062
:1047100080010020E484002010B504462046FEF706
:1047200069FB68B11B49487B3A22022100F0A4FDD5
:104730000121084600F082FD0020FCF78DFA10BD33
:1047400015480068401E000E1449087012480068A1
:10475000401E000C487010480088401E000A8870F7
:104760000D480078401EC8700D480068000E0871A2
:104770000B480068000C487109480088000A8871DD
:1047800007480078C8710821044801F0C7F900BF44
:10479000D5E70000E4840020F80000206B01002031
:1047A000F400002010B504462046FEF723FB68B154
:1047B0001749487B3A22022100F05EFD012108469C
:1047C00000F03CFD0020FCF747FA10BD11480068DE
:1047D000000E114908710F480068000C48710D481F
:1047E0000088000A88710B480078C8710B4800687F
:1047F000000C487209480088000A8872074800784F
:10480000C8720C21044801F089F900BFDDE70000FF
:10481000E4840020F800002073010020F400002050
:1048200070B505460648C07C122802DC0448C47CEA
:1048300000E012242146034801F070F970BD000029
:10484000E48400205901002010B504460121002015
:1048500000F0F4FC10BD000010B504462046FEF741
:10486000C9FA68B10949487B3A22022100F004FDE7
:104870000121084600F0E2FC0020FCF7EDF910BD34
:104880000121002000F0DAFC00BFF8E7E4840020FA
:1048900010B504460D48806848B90C48007C00F00B
:1048A000040020B90121002000F0C8FC0CE0022027
:1048B000FCF7D2F90549487B2422052100F0DCFCF5
:1048C0000021012000F0BAFC10BD0000E4840020AB
:1048D00070B506460C4615461948007820BB1949A4
:1048E000487B2B4622462A21FFF724FE00B970BDE3
:1048F0001448007B00F0800040B901201049087086
:104900004FF44051022000F09BFB0CE00020FCF72C
:10491000A3F90C49487B2422052100F0ADFC0021BD
:10492000012000F08BFCE2E705480078012804D163
:104930002A462146304601F033FF00BFD7E700008A
:1049400080010020E484002021B1028842F040026E
:10495000028004E002884FF6BF731A40028070475D
:104960000246002013890B400BB1012000E000201B
:1049700070470146888970478181704710B50022D1
:10498000028802F441520B884C8823438C882343CD
:10499000CC8823430C8923434C8923438C892343AC
:1049A000CC8923431A430280838B4FF2FF74234048
:1049B00083830B8A038210BD70B505460C464FF405
:1049C00000610848FDF7F8FC284600F0C7FD0646E0
:1049D000204600F0C3FD4FF400610248FDF7EEFCF5
:1049E000304670BD000C014070B504464FF40061C4
:1049F0000848FDF7E1FC204600F0B0FD002000F083
:104A0000ADFD05464FF400610248FDF7D7FC28468E
:104A100070BD0000000C01402DE9F04107460D4635
:104A200016464FF400610C48FDF7C6FC384600F00E
:104A300095FD8046002405E0002000F08FFD2855FC
:104A4000601CC4B2B442F7DB4FF400610248FDF7CA
:104A5000B5FC4046BDE8F081000C01402DE9F04175
:104A600007460C4615464FF400610C48FDF7A4FCC0
:104A7000384600F073FD8046002605E014F8010B6F
:104A800000F06CFD701CC6B2AE42F7DB4FF4006163
:104A90000248FDF793FC4046BDE8F081000C014060
:104AA0007047000000B585B004A801F063FA002843
:104AB00071D09DF8100047286ED015DC412855D0E4
:104AC0000ADCA0F12B00092867D2DFE800F0A2661B
:104AD000B56666262C66320042380528F4D2DFE837
:104AE00000F04C535D646B00612838D00CDC532817
:104AF00070D004DC482870D049284ED129E05428D1
:104B00006AD05528F9D1D3E0622878D06D2877D0C3
:104B10006E2876D07A28F0D1F5E0A3A002F004F850
:104B2000FDF7FCFA3CE1A6A001F0FEFF01F02AFB34
:104B300036E1A9A001F0F8FF05F0CEF9FF21E2204F
:104B4000FFF73AFFFF21E120FFF736FFFFF7B0F94B
:104B500026E1A8A001F0E8FF06F09CF920E1ACA056
:104B600001F0E2FFAF48FEF7BDFC19E1A8A001F09B
:104B7000DBFFADA0FEF7B6FC12E1A5A001F0D4FF6B
:104B8000ABA0FEF7AFFC0BE1A1A001F0CDFFAAA006
:104B9000FEF7A8FC04E104E115E0FEE09CA001F0B2
:104BA000C3FFA7A0FEF79EFCFAE099A001F0BCFFAE
:104BB000A5A0FEF797FCF3E095A001F0B5FFA4A037
:104BC000FEF790FCECE092A001F0AEFFA2A0FEF791
:104BD00089FCE5E016E000E041E08DA001F0A4FFD3
:104BE0000D219F48FBF7D9FA9D4891A10A68026000
:104BF0008A88828089798171FEF7CEFCD0E0AEE0B0
:104C0000C1E0B6E0964890F8281096A001F08CFF1D
:104C1000C6E09348807BF42804DC9148807B0A300E
:104C20008F4988738E49887B06F0CEF98C48817B4A
:104C300090A001F079FFB3E08948807B0A2804DB6B
:104C40008748807B0A38864988738549887B06F0C7
:104C5000BBF98348817B8CA001F066FFA0E08FA0A8
:104C600001F062FF91480068FFF745FC8F4800683B
:104C700000788E49096849788C4A126892788B4B83
:104C80001B689B79CDE90032CDE9021087480068A6
:104C9000C37886480068027984480068417984A016
:104CA00001F042FF8C4801688CA001F03DFF77E0E5
:104CB0007AA001F039FFFBF79FFF7C480068FFF7FF
:104CC0001AFC7A480068017878480068427877488A
:104CD00000688078754B1B689B79CDE90030CDE981
:104CE000022172480068C3787048006802796F48F2
:104CF000006841796EA001F017FF7748016877A03E
:104D000001F012FF4CE07748806800F00F0176A0B8
:104D100001F00AFF73488068012121EA503076498A
:104D200008600846016875A001F0FEFE6D488068C5
:104D3000012121EA9030754908600846016874A095
:104D400001F0F2FE67488068012121EAD030744901
:104D500008600846016873A001F0E6FE20E075A037
:104D600001F0E2FE5F48C06880F480605D49C86081
:104D700016E075A001F0D8FE5A48C06880F40060C3
:104D80005849C8600CE075A001F0CEFE5548C068D7
:104D900080F480505349C86002E0FDF73BF800BF43
:104DA00000BF05B000BD00003F3F30202D20466908
:104DB0006C65466F726D61743F3F0D0A0000000024
:104DC0003F3F31202D2056696577526F6F744469DB
:104DD000723F3F0D0A0000003F3F33202D206E52EE
:104DE0004632344C3031696F436F6E6669670D0A25
:104DF000000000003F3F69202D20767331303533AD
:104E00005F526561644368697049443F3F0D0A0021
:104E10003F3F37202D20506C6179536F756E643F92
:104E20003F0D0A00680000203030312E4D50330015
:104E30003030322E4D5033003030332E4D50330051
:104E40003030342E4D5033003030352E4D5033003D
:104E50003030312E574156003030322E57415600F7
:104E6000100300204D50332E646972203D202564CC
:104E70000D0A00002B2B20566F6C756D65203D20B0
:104E800025640D0A000000002D2D20566F6C756DF5
:104E900065203D2025640D0A000000003F3F54209E
:104EA0002D203F3F3F3F3F3F3F0D0A00DC020020E7
:104EB0003230253032782D253032782D2530327839
:104EC000202530327820253032783A253032783A31
:104ED000253032780D0A000000ED00E025303878EA
:104EE0000D0A0000001001403D3D5357494E20255A
:104EF00064200D0A00000000B40000203D3D52492E
:104F00004E20202578200D0A00000000B800002067
:104F10003D3D47494E20202578200D0A0000000025
:104F2000BC0000203D3D41494E20202578200D0A3F
:104F3000000000003D3D445231203F546F67676CD4
:104F400065200D0A000000003D3D445232203F54D0
:104F50006F67676C65200D0A000000003D3D4452FC
:104F600033203F546F67676C65200D0A0000000016
:104F70004FF6F8710140014A11607047505C0040E3
:104F800030B501460F4B1A78002014E003060E4C92
:104F900004EB9353D3F8003C48F68F74234048F257
:104FA00080042343C4B223430406074D05EB945405
:104FB000C4F8003C401C9042E8D341F08003034C0D
:104FC000236030BDE4010020005000404C5C0040F4
:104FD00010B54A105300054A126892B202EBC002A3
:104FE000121D034C44F8123010BD0000505C00400C
:104FF0000060004010B502460F48006880B200EB28
:10500000C200801D0D4C04EB40033E290BDD48110E
:1050100001F01F040CB9441EA0B24FF4004444EA4E
:1050200080241C6007E0481001F001040CB1441C0E
:10503000A0B284021C6010BD505C004000600040C3
:1050400030B50E4C04EB8003D3F8003C4BF68F7464
:1050500003EA040201F480530BB182F4805201F49C
:1050600000530BB182F4005242F4004343F080033A
:10507000024D05EB8004C4F8003C30BD00500040F8
:1050800010B50B4B03EB8002D2F8002C4BF68F735C
:1050900002EA030181F4805181F4005141F400429D
:1050A00042F08002024C04EB8003C3F8002C10BDD8
:1050B0000050004010B54A105200044B1B689BB2D0
:1050C00003EBC003024C44F8132010BD505C0040B9
:1050D00000600040044A126892B202EBC002921CC7
:1050E000024B43F812107047505C004000600040D3
:1050F00030B50E4C04EB8003D3F8003C48F6BF7487
:1051000003EA040201F010030BB182F0100201F077
:1051100020030BB182F0200242F4004343F08003ED
:10512000024D05EB8004C4F8003C30BD0050004047
:1051300010B5074B03EB8002D2F8002C48F68F1312
:105140001A400A43024C04EB8003C3F8002C10BD44
:105150000050004010B500F001F810BD0CB5002063
:10516000019000903348006840F480303149086075
:1051700000BF3048006800F4003000900198401CE7
:105180000190009818B90198B0F5A06FF1D12948A5
:10519000006800F4003010B10120009001E0002010
:1051A00000900098012843D12348006840F0100087
:1051B000214908600846006820F00300086008469E
:1051C000006840F0020008601A48406819494860C9
:1051D0000846406848600846406840F4806048607F
:1051E0000846406820F47C1048600846406840F457
:1051F000E81048600846006840F08070086000BF12
:105200000C48006800F000700028F9D00948406898
:1052100020F00300074948600846406840F002005B
:10522000486000BF0348406800F00C000828F9D12E
:105230000CBD0000001002400020024070B5054681
:105240000C460A480A490860084605730D22812069
:1052500000F0DFFD0520074908702CB1042008701C
:1052600030210120FFF744FF70BD00005553425329
:105270000485002080010020014B99701A7370474B
:105280005901002038B501242948006880B2001D6A
:10529000284931F8100080B201EB40000090264808
:1052A0000068007A092832D00098007822490968FD
:1052B00008700098401C0090009800781E4909680A
:1052C00048700098401C0090009800EB440000904B
:1052D000009931F8020B0091FBF7E0FC16490968D0
:1052E0004880009800EB44000090009931F8020BD0
:1052F0000091FBF7D3FC104909688880009800EB07
:1053000044000090009800880B490968C88001207B
:1053100009490968087208480068C08810B9FEF792
:1053200007F801E0FCF7B8FBFEF718FA38BD0000FB
:10533000505C0040006000408002002010B500205A
:1053400001F04AF9012001F047F901F0C5F8002405
:105350003BE004EBC4001E4901EB4000807800F004
:10536000010080B104EBC40001EB4000807820F024
:10537000010004EBC401164A02EB4101887020468B
:10538000FEF730FA1FE0134850F8240041F288314C
:10539000884218D304EBC4000D4901EB400040786B
:1053A00003280CD104EBC40001EB4000807820F00E
:1053B000020004EBC401064A02EB410188700020A0
:1053C000044941F82400601CC4B2082CC1DB10BDA4
:1053D000E6A8002078B9002010B50446012200217B
:1053E000204601F021FB01221146204601F01CFB62
:1053F0000520FCF79FFC03212046FEF719FF132828
:1054000006D010220121204601F00EFB002010BD25
:1054100004220121204601F007FB0120F7E70000EC
:1054200010B5044640F2B4521221204601F018FB98
:1054300004EBC400114901EB40008288042120469E
:1054400001F00EFB04EBC4000C4911F81000012818
:1054500012D104EBC40001EB400042891021204628
:1054600001F0FEFA04EBC400044901EB4000821D88
:105470000C21204601F010FB10BD0000E6A8002022
:1054800010B5044601220021204601F0CDFA012288
:105490001146204601F0C8FA0520FCF74BFC032119
:1054A0002046FEF7C5FE132806D010220121204613
:1054B00001F0BAFA002010BD02220121204601F0BD
:1054C000B3FA0520FCF736FC03212046FEF7B0FEB8
:1054D000142806D010220121204601F0A5FA002050
:1054E000E9E70120E7E710B5044602220021204643
:1054F00001F09AFA01221146204601F095FA0520A2
:10550000FCF718FC03212046FEF792FE222806D065
:1055100010220121204601F087FA002010BD012051
:10552000FCE7000010B5044600BF02210A48FFF75F
:1055300017FA0028F9D021460748FFF71DFA00BFE7
:1055400001210548FFF70CFA0028F9D00248FFF7BF
:1055500010FAC0B210BD00000030014010B5044682
:1055600000BF02210A48FFF7FBF90028F9D02146C5
:105570000748FFF701FA00BF01210548FFF7F0F9DE
:105580000028F9D00248FFF7F4F9C0B210BD0000BE
:10559000003800402DE9F04754480068007800F0DA
:1055A0007F08B8F1000F0AD150480068407A00F037
:1055B000DF004E49096848720020BDE8F087B8F165
:1055C000020F7CD149480068408818B947480068F4
:1055D000007908B10220F0E7DFF814914348006831
:1055E000477927F080052C4640480068407900F054
:1055F000800038B13F4901EB8400D0F8000C00F086
:10560000300606E03B4901EB8400D0F8000C00F4C2
:10561000405699F80000A84204D91EB133480068EA
:10562000807A08B90220C8E707F0800080B13149CC
:1056300001EB8400D0F8000C00F0300010284BD1B2
:10564000E0B2FBF7FDFEE0B23021FFF751FD43E091
:10565000284901EB8400D0F8000C00F44050B0F56C
:10566000805F39D1E4B9244A92F82C10E0B2FFF7F8
:10567000C1FC204A02EB8401D1F8001C4BF68F726A
:1056800001EA020080F4805080F4005040F40041B0
:1056900041F08001174B03EB8402C2F8001C1BE0B1
:1056A000E0B2FBF7B3FE134A02EB8401D1F8001C11
:1056B0004BF68F7201EA020080F4805000E011E0A6
:1056C00080F4005040F4004141F08001094B03EBAD
:1056D0008402C2F8001C00BF084909684869804775
:1056E00000206AE700BF022067E700008002002078
:1056F000E401002000500040E80100208C0200205E
:1057000010B504462CB9012006490968088200201A
:1057100010BD0549096808688047024800680A30DA
:10572000F6E70000800200208C02002010B502463F
:1057300006480068438A32B98888C01A034C246836
:105740002082002010BD08681844FBE7800200207A
:1057500010B504462CB901200649096808820020CA
:1057600010BD0549096888688047024800680C3008
:10577000F6E70000800200208C02002010B50446ED
:105780002CB90220394909680882002010BD002088
:105790003749088035480068007800F07F0018BB62
:1057A00032490968487A00F0200131B1304909785E
:1057B00041F002012E4A117005E02D49097801F0EF
:1057C000FD012B4A117000F0400131B128490978E0
:1057D00041F00101264A117005E02549097801F0E0
:1057E000FE01234A11703AE020480068007800F07A
:1057F0007F00012801D11E48C8E71C4800680078D6
:1058000000F07F00022828D1184A1268517901F06F
:105810000F0001F080027AB1164B03EB8002D2F840
:10582000002C02F03002102A16D1114A127842F0F0
:1058300001020F4B1A700FE00E4B03EB8002D2F8FF
:10584000002C02F44052B2F5805F05D1084A12786C
:1058500042F00102064B1A7001E0002096E706496B
:10586000096808698047024890E70000800200202C
:1058700094020020005000408C02002010B50E4819
:105880000068C0780D494978884213DC0A480068EE
:10589000807878B908480068808858B90648006858
:1058A000C0780549096888720549096848688047D1
:1058B000002010BD0220FCE780020020E40100204F
:1058C0008C02002010B507480068407A40F02000A4
:1058D00004490968487204490968C869804700207A
:1058E00010BD0000800200208C0200202DE9F04154
:1058F0002E480068467926F080073C462B48006811
:10590000407900F0800038B1294901EB8400D0F8DB
:10591000000C00F0300506E0254901EB8400D0F8CA
:10592000000C00F4405523480078A04208D91F48D5
:105930000068408820B91DB11C480068807A10B901
:105940000220BDE8F08106F08000A0B1184A02EB09
:105950008401D1F8001C48F6BF7201EA020080F011
:10596000100040F4004141F08001114B03EB840230
:10597000C2F8001C14E00E4A02EB8401D1F8001CAE
:105980004BF68F7201EA020080F4805040F400412F
:1059900041F08001064B03EB8402C2F8001C00BFFB
:1059A00005490968886980470020CAE7800200200D
:1059B00000500040E40100208C02002010B5174B7D
:1059C0001B68D978154B1B685879154B1B689A6969
:1059D0009047044611480068807AE8B13CB90F4806
:1059E0000068007918B90D480068807808B1022075
:1059F00010BD8CB90B490968C86880470748006822
:105A0000407906490968C87204480068C0780349AB
:105A1000096808730020EBE70220E9E78002002014
:105A2000840200208C02002000B501200249087089
:105A300000F068F800BD00000000002030B500BF95
:105A4000154800684FF47A72B0FBF2F1B1F1807F33
:105A500001D301201DE021F07F40401E4FF0E022E5
:105A6000506150170F22002807DA13071D0E0B4B49
:105A700000F00F04241F1D5503E013071C0E084BF4
:105A80001C5400BF00204FF0E022906107201061FD
:105A900000200028D4D130BDC400002018ED00E063
:105AA00000E400E010B51348006840F0010011491F
:105AB000086008464068104908400E49486008469A
:105AC00000680E4908400B4908600846006820F449
:105AD000802008600846406820F4FE0048604FF4CB
